:04000000A6EF00F077
:10001800D8CF05F0E8CF06F0E0CF07F0FACF08F028
:10002800FBCF09F0E9CF0AF0EACF0BF0E1CF0CF0F3
:10003800E2CF0DF0D9CF0EF0DACF0FF0F3CF10F0FA
:10004800F4CF11F0F6CF12F0F7CF13F0F8CF14F089
:10005800F5CF15F09DBA9EAA52D0AECF27F046D064
:10006800046E010E256E0450046E000E286E1ED01C
:100078002504D8A443D0046E000E256E0450020156
:1000880002010051D00F0A0DF350020102010125AF
:10009800D00F266E02C2D5F103C2D6F128502662CF
:1000A80007D0046E010E01010101D46F045026D05F
:1000B800046E000E01010101D46F04507F0E036E1F
:1000C800F70E026ED0EC0CF019D02504D8A416D087
:1000D8002850010D0201000EF324D96E0201020E10
:1000E800F420DA6E27C0DFFF282A08D02750010A3B
:1000F800D8B4B6D7050AD8B4BBD7E7D79E9A15C0E7
:10010800F5FF14C0F8FF13C0F7FF12C0F6FF11C0C7
:10011800F4FF10C0F3FF0FC0DAFF0EC0D9FF0DC007
:10012800E2FF0CC0E1FF0BC0EAFF0AC0E9FF09C00B
:10013800FBFF08C0FAFF07C0E0FF06C0E8FF05C0E4
:10014800D8FF10007AEF0CF01F6E010E01010101BB
:10015800D26F1F501F6E000E01010101CD6F1F509D
:1001680023EE00F011EE00F0C80EDECFE6FFE82E19
:10017800FCD71F6E020E01010101C96F1F50000E4E
:10018800956EEAEC0CF07F0E186EEA0E176EB6EC60
:100198000CF07F0E186EB70E176EB6EC0CF09D8A39
:1001A800F28CF28E11EC0DF001010101D405D8A4F6
:1001B8007FD0000E01010101D16F000E0101D06F47
:1001C800C80E01010101D05D000E0101D159D8B05E
:1001D80013D00101000E01010101D025D96E0101E2
:1001E800010E01010101D121DA6E000EDF6E01015D
:1001F8000101D04BD12BE4D7000E01010101D16FD1
:10020800000E0101D06F24D0040E01010101D02598
:100218001F6E000E01010101D121206E0201000EA6
:100228001F24D96E0201020E2020DA6E0101000E91
:1002380001010101D025E16E0101010E0101010159
:10024800D121E26EDFCFE7FF01010101D04BD12BB5
:1002580026501F6E206A1F5001010101D05D2050F9
:1002680001010101D159D8A0CFD701010101D04B1B
:10027800D12B0101000E01010101D025D96E010128
:10028800010E01010101D121DA6E000EDF6E1F6E31
:10029800000E01010101D46F1F50D5C1C9F1D6C1AB
:1002A800D2F101010101D251D00F01010101D26F38
:1002B8000101010E176E0101000E166E99EC0CF08B
:1002C800165001010101CB6F1F6E000E01010101E3
:1002D800CE6F1F50DEEF0BF001010101D405D8B439
:1002E80063D71F6E000E01010101CC6F1F50C1EFD3
:1002F8000BF01F6E000E01010101D36F1F50070E96
:1003080001010101D36523EF0BF0ABEF0BF0010105
:100318000101CE51010D0101000EF324D96E010136
:10032800010EF420DA6EDF5001010101CD6F0101E9
:100338000101D351020D000E1F6EFE0E206E010149
:100348000101CD51216E226A213A223AF00E22167D
:1003580021500F0B2212F00E21161F50212620507B
:100368002222C70E236E790E246E21502326225096
:100378002422F3502326F450242223C0F6FF24C05D
:10038800F7FF08000101F5CFCFF101010101D351B9
:10039800080D060EF326000EF4220001600EF32469
:1003A800D96E0001000EF420DA6E01010101D2516C
:1003B80000081F6E080E1F2601010101D351080D08
:1003C800050EF326000EF4220001600EF324E16E00
:1003D8000001000EF420E26EE750206E1F2A02D0C2
:1003E800D89020321F2EFCD7D2C121F00101010183
:1003F800D351080D060EF326000EF4220001600EFC
:10040800F324E16E0001000EF420E26EE750226E44
:10041800212A02D0D8902236212EFCD72250201033
:10042800DF6E01010101D351080D050EF326000E00
:10043800F4220001600EF324D96E0001000EF420AE
:10044800DA6E01010101D25100081F6E080E1F2645
:1004580001010101D351080D040EF326000EF42208
:100468000001600EF324E16E0001000EF420E26E3C
:10047800E750206E1F2A02D0D89020321F2EFCD7BA
:10048800D2C121F001010101D351080D050EF32657
:10049800000EF4220001600EF324E16E0001000E4C
:1004A800F420E26EE750226E212A02D0D89022363C
:1004B800212EFCD722502010DF6E01010101D351FB
:1004C800080D040EF326000EF4220001600EF3243A
:1004D800D96E0001000EF420DA6E01010101D2513B
:1004E80000081F6E080E1F2601010101D351080DD7
:1004F800030EF326000EF4220001600EF324E16ED1
:100508000001000EF420E26EE750206E1F2A02D090
:10051800D89020321F2EFCD7D2C121F00101010151
:10052800D351080D040EF326000EF4220001600ECC
:10053800F324E16E0001000EF420E26EE750226E13
:10054800212A02D0D8902236212EFCD72250201002
:10055800DF6E01010101D351080D030EF326000ED1
:10056800F4220001600EF324D96E0001000EF4207D
:10057800DA6E01010101D25100081F6E080E1F2614
:1005880001010101D351080D020EF326000EF422D9
:100598000001600EF324E16E0001000EF420E26E0B
:1005A800E750206E1F2A02D0D89020321F2EFCD789
:1005B800D2C121F001010101D351080D030EF32628
:1005C800000EF4220001600EF324E16E0001000E1B
:1005D800F420E26EE750226E212A02D0D89022360B
:1005E800212EFCD722502010DF6E01010101D351CA
:1005F800080D020EF326000EF4220001600EF3240B
:10060800D96E0001000EF420DA6E01010101D25109
:1006180000081F6E080E1F2601010101D351080DA5
:10062800010EF326000EF4220001600EF324E16EA1
:100638000001000EF420E26EE750206E1F2A02D05F
:10064800D89020321F2EFCD7D2C121F00101010120
:10065800D351080D020EF326000EF4220001600E9D
:10066800F324E16E0001000EF420E26EE750226EE2
:10067800212A02D0D8902236212EFCD722502010D1
:10068800DF6E01010101D351080D010EF326000EA2
:10069800F4220001600EF324D96E0001000EF4204C
:1006A800DA6E01010101D25100081F6E080E1F26E3
:1006B80001010101D351080D0001600EF324E16E20
:1006C8000001000EF420E26EE750206E1F2A02D0CF
:1006D800D89020321F2EFCD7D2C121F00101010190
:1006E800D351080D010EF326000EF4220001600E0E
:1006F800F324E16E0001000EF420E26EE750226E52
:10070800212A02D0D8902236212EFCD72250201040
:10071800DF6E01010101D351080D0001600EF324C1
:10072800D96E0001000EF420DA6E01010101CC51EE
:1007380001010101D203F35001010101D225000892
:100748001F6E080E1F26CFC120F01F2A02D0D89096
:1007580020321F2EFCD7D2C121F001010101D35153
:10076800080D0001600EF324E16E0001000EF42074
:10077800E26EE750226E212A02D0D8902236212E2E
:10078800FCD7B2EF0AF0FF0E1F6EFF0E206E0101BC
:100798000101CE51216E226A211E221E214A222ADF
:1007A80001010101CB51236E246A215023262250D6
:1007B80024221F502326205024220101000E232426
:1007C800D96E0101010E2420DA6EDF50010101010A
:1007D800CD6F01010101D351020D000E1F6EFE0EF7
:1007E800206E01010101CD51216E226A213A223A7F
:1007F800F00E221621500F0B2212F00E21161F5058
:10080800212620502222C70E236E790E246E2150F5
:10081800232622502422F3502326F450242223C0D6
:10082800F6FF24C0F7FF08000101F5CFCFF1010161
:100838000101D351080D0001600EF324D96E0001A7
:10084800000EF420DA6E01010101D25100081F6E7A
:10085800080E1F2601010101D351080D010EF326D0
:10086800000EF4220001600EF324E16E0001000E78
:10087800F420E26EE750206E1F2A02D0D89020366E
:100888001F2EFCD7D2C121F001010101D351080D5F
:100898000001600EF324E16E0001000EF420E26E08
:1008A800E750226E212A02D0D8902232212EFCD77E
:1008B80022502010DF6E01010101D351080D010EF5
:1008C800F326000EF4220001600EF324D96E000115
:1008D800000EF420DA6E01010101D25100081F6EEA
:1008E800080E1F2601010101D351080D020EF3263F
:1008F800000EF4220001600EF324E16E0001000EE8
:10090800F420E26EE750206E1F2A02D0D8902036DD
:100918001F2EFCD7D2C121F001010101D351080DCE
:10092800010EF326000EF4220001600EF324E16E9E
:100938000001000EF420E26EE750226E212A02D058
:10094800D8902232212EFCD722502010DF6E0101D0
:100958000101D351080D020EF326000EF422000106
:10096800600EF324D96E0001000EF420DA6E010146
:100978000101D25100081F6E080E1F260101010156
:10098800D351080D030EF326000EF4220001600E69
:10099800F324E16E0001000EF420E26EE750206EB1
:1009A8001F2A02D0D89020361F2EFCD7D2C121F0A2
:1009B80001010101D351080D020EF326000EF422A5
:1009C8000001600EF324E16E0001000EF420E26ED7
:1009D800E750226E212A02D0D8902232212EFCD74D
:1009E80022502010DF6E01010101D351080D030EC2
:1009F800F326000EF4220001600EF324D96E0001E4
:100A0800000EF420DA6E01010101D25100081F6EB8
:100A1800080E1F2601010101D351080D040EF3260B
:100A2800000EF4220001600EF324E16E0001000EB6
:100A3800F420E26EE750206E1F2A02D0D8902036AC
:100A48001F2EFCD7D2C121F001010101D351080D9D
:100A5800030EF326000EF4220001600EF324E16E6B
:100A68000001000EF420E26EE750226E212A02D027
:100A7800D8902232212EFCD722502010DF6E01019F
:100A88000101D351080D040EF326000EF4220001D3
:100A9800600EF324D96E0001000EF420DA6E010115
:100AA8000101D25100081F6E080E1F260101010125
:100AB800D351080D050EF326000EF4220001600E36
:100AC800F324E16E0001000EF420E26EE750206E80
:100AD8001F2A02D0D89020361F2EFCD7D2C121F071
:100AE80001010101D351080D040EF326000EF42272
:100AF8000001600EF324E16E0001000EF420E26EA6
:100B0800E750226E212A02D0D8902232212EFCD71B
:100B180022502010DF6E01010101D351080D050E8E
:100B2800F326000EF4220001600EF324D96E0001B2
:100B3800000EF420DA6E01010101D25100081F6E87
:100B4800080E1F2601010101D351080D060EF326D8
:100B5800000EF4220001600EF324E16E0001000E85
:100B6800F420E26EE750206E1F2A02D0D89020367B
:100B78001F2EFCD7D2C121F001010101D351080D6C
:100B8800050EF326000EF4220001600EF324E16E38
:100B98000001000EF420E26EE750226E212A02D0F6
:100BA800D8902232212EFCD722502010DF6E01016E
:100BB8000101D351080D060EF326000EF4220001A0
:100BC800600EF324D96E0001000EF420DA6E0101E4
:100BD8000101CC5101010101D203F35001010101CE
:100BE800D22500081F6E080E1F26CFC120F01F2A2D
:100BF80002D0D89020361F2EFCD7D2C121F0010197
:100C08000101D351080D060EF326000EF42200014F
:100C1800600EF324E16E0001000EF420E26EE7504E
:100C2800226E212A02D0D8902232212EFCD7B2EF90
:100C38000AF001010101CE51010D0101000EF3245A
:100C4800D96E0101010EF420DA6EDF5001010101B5
:100C5800CD6F01010101D351020D000E1F6EFE0E72
:100C6800206E01010101CD51216E226A213A223AFA
:100C7800F00E221621500F0B2212F00E21161F50D3
:100C8800212620502222C70E236E790E246E215071
:100C9800232622502422F3502326F450242223C052
:100CA800F6FF24C0F7FF08000101F5CFCFF10101DD
:100CB8000101CF1F01010101D351080D060EF326D2
:100CC800000EF4220001600EF324D96E0001000E1C
:100CD800F420DA6E01010101D25100081F6E080EDE
:100CE8001F2601010101D351080D050EF326000E40
:100CF800F4220001600EF324E16E0001000EF420DE
:100D0800E26EE750206E1F2A02D0D89020321F2EA4
:100D1800FCD7D2C121F001010101D351080D060E03
:100D2800F326000EF4220001600EF324E16E0001A8
:100D3800000EF420E26EE750226E212A02D0D890ED
:100D48002236212EFCD722502010DF6E010101012E
:100D5800D351080D050EF326000EF4220001600E93
:100D6800F324D96E0001000EF420DA6E01010101AE
:100D7800D25100081F6E080E1F2601010101D35130
:100D8800080D040EF326000EF4220001600EF32471
:100D9800E16E0001000EF420E26EE750206E1F2A7B
:100DA80002D0D89020321F2EFCD7D2C121F00101E9
:100DB8000101D351080D050EF326000EF42200019F
:100DC800600EF324E16E0001000EF420E26EE7509D
:100DD800226E212A02D0D8902236212EFCD722500A
:100DE8002010DF6E01010101D351080D040EF32616
:100DF800000EF4220001600EF324D96E0001000EEB
:100E0800F420DA6E01010101D25100081F6E080EAC
:100E18001F2601010101D351080D030EF326000E10
:100E2800F4220001600EF324E16E0001000EF420AC
:100E3800E26EE750206E1F2A02D0D89020321F2E73
:100E4800FCD7D2C121F001010101D351080D040ED4
:100E5800F326000EF4220001600EF324E16E000177
:100E6800000EF420E26EE750226E212A02D0D890BC
:100E78002236212EFCD722502010DF6E01010101FD
:100E8800D351080D030EF326000EF4220001600E64
:100E9800F324D96E0001000EF420DA6E010101017D
:100EA800D25100081F6E080E1F2601010101D351FF
:100EB800080D020EF326000EF4220001600EF32442
:100EC800E16E0001000EF420E26EE750206E1F2A4A
:100ED80002D0D89020321F2EFCD7D2C121F00101B8
:100EE8000101D351080D030EF326000EF422000170
:100EF800600EF324E16E0001000EF420E26EE7506C
:100F0800226E212A02D0D8902236212EFCD72250D8
:100F18002010DF6E01010101D351080D020EF326E6
:100F2800000EF4220001600EF324D96E0001000EB9
:100F3800F420DA6E01010101D25100081F6E080E7B
:100F48001F2601010101D351080D010EF326000EE1
:100F5800F4220001600EF324E16E0001000EF4207B
:100F6800E26EE750206E1F2A02D0D89020321F2E42
:100F7800FCD7D2C121F001010101D351080D020EA5
:100F8800F326000EF4220001600EF324E16E000146
:100F9800000EF420E26EE750226E212A02D0D8908B
:100FA8002236212EFCD722502010DF6E01010101CC
:100FB800D351080D010EF326000EF4220001600E35
:100FC800F324D96E0001000EF420DA6E010101014C
:100FD800D25100081F6E080E1F2601010101D351CE
:100FE800080D0001600EF324E16E0001000EF420EC
:100FF800E26EE750206E1F2A02D0D89020321F2EB2
:10100800FCD7D2C121F001010101D351080D010E15
:10101800F326000EF4220001600EF324E16E0001B5
:10102800000EF420E26EE750226E212A02D0D890FA
:101038002236212EFCD722502010DF6E010101013B
:10104800D351080D0001600EF324D96E0001000E83
:10105800F420DA6E01010101CC5101010101D20332
:10106800F35001010101D22500081F6E080E1F264A
:10107800CFC120F01F2A02D0D89020321F2EFCD7D3
:10108800D2C121F001010101D351080D0001600E08
:10109800F324E16E0001000EF420E26EE750226EA8
:1010A800212A02D0D8902236212EFCD757D2FF0E03
:1010B8001F6EFF0E206E01010101CE51216E226AC2
:1010C800211E221E214A222A01010101CB51236E31
:1010D800246A21502326225024221F5023262050E0
:1010E80024220101000E2324D96E0101010E2420BF
:1010F800DA6EDF5001010101CD6F01010101D35109
:10110800020D000E1F6EFE0E206E01010101CD5171
:10111800216E226A213A223AF00E221621500F0B34
:101128002212F00E21161F50212620502222C70E0F
:10113800236E790E246E2150232622502422F35048
:101148002326F450242223C0F6FF24C0F7FF08000A
:101158000101F5CFCFF101010101CF1F010101010B
:10116800D351080D0001600EF324D96E0001000E62
:10117800F420DA6E01010101D25100081F6E080E39
:101188001F2601010101D351080D010EF326000E9F
:10119800F4220001600EF324E16E0001000EF42039
:1011A800E26EE750206E1F2A02D0D89020361F2EFC
:1011B800FCD7D2C121F001010101D351080D000172
:1011C800600EF324E16E0001000EF420E26EE75099
:1011D800226E212A02D0D8902232212EFCD722500A
:1011E8002010DF6E01010101D351080D010EF32615
:1011F800000EF4220001600EF324D96E0001000EE7
:10120800F420DA6E01010101D25100081F6E080EA8
:101218001F2601010101D351080D020EF326000E0D
:10122800F4220001600EF324E16E0001000EF420A8
:10123800E26EE750206E1F2A02D0D89020361F2E6B
:10124800FCD7D2C121F001010101D351080D010ED3
:10125800F326000EF4220001600EF324E16E000173
:10126800000EF420E26EE750226E212A02D0D890B8
:101278002232212EFCD722502010DF6E01010101FD
:10128800D351080D020EF326000EF4220001600E61
:10129800F324D96E0001000EF420DA6E0101010179
:1012A800D25100081F6E080E1F2601010101D351FB
:1012B800080D030EF326000EF4220001600EF3243D
:1012C800E16E0001000EF420E26EE750206E1F2A46
:1012D80002D0D89020361F2EFCD7D2C121F00101B0
:1012E8000101D351080D020EF326000EF42200016D
:1012F800600EF324E16E0001000EF420E26EE75068
:10130800226E212A02D0D8902232212EFCD72250D8
:101318002010DF6E01010101D351080D030EF326E1
:10132800000EF4220001600EF324D96E0001000EB5
:10133800F420DA6E01010101D25100081F6E080E77
:101348001F2601010101D351080D040EF326000EDA
:10135800F4220001600EF324E16E0001000EF42077
:10136800E26EE750206E1F2A02D0D89020361F2E3A
:10137800FCD7D2C121F001010101D351080D030EA0
:10138800F326000EF4220001600EF324E16E000142
:10139800000EF420E26EE750226E212A02D0D89087
:1013A8002232212EFCD722502010DF6E01010101CC
:1013B800D351080D040EF326000EF4220001600E2E
:1013C800F324D96E0001000EF420DA6E0101010148
:1013D800D25100081F6E080E1F2601010101D351CA
:1013E800080D050EF326000EF4220001600EF3240A
:1013F800E16E0001000EF420E26EE750206E1F2A15
:1014080002D0D89020361F2EFCD7D2C121F001017E
:101418000101D351080D040EF326000EF422000139
:10142800600EF324E16E0001000EF420E26EE75036
:10143800226E212A02D0D8902232212EFCD72250A7
:101448002010DF6E01010101D351080D050EF326AE
:10145800000EF4220001600EF324D96E0001000E84
:10146800F420DA6E01010101D25100081F6E080E46
:101478001F2601010101D351080D060EF326000EA7
:10148800F4220001600EF324E16E0001000EF42046
:10149800E26EE750206E1F2A02D0D89020361F2E09
:1014A800FCD7D2C121F001010101D351080D050E6D
:1014B800F326000EF4220001600EF324E16E000111
:1014C800000EF420E26EE750226E212A02D0D89056
:1014D8002232212EFCD722502010DF6E010101019B
:1014E800D351080D060EF326000EF4220001600EFB
:1014F800F324D96E0001000EF420DA6E0101010117
:10150800CC5101010101D203F35001010101D2259F
:1015180000081F6E080E1F26CFC120F01F2A02D018
:10152800D89020361F2EFCD7D2C121F0010101012D
:10153800D351080D060EF326000EF4220001600EAA
:10154800F324E16E0001000EF420E26EE750226EF3
:10155800212A02D0D8902232212EFCD722502010E6
:10156800DF6E82D001010101CE51010D0101000E93
:10157800F324D96E0101010EF420DA6EDF50010167
:101588000101CD6F01010101D351020D000E1F6E43
:10159800FE0E206E01010101CD51216E226A213A11
:1015A800223AF00E221621500F0B2212F00E2116AD
:1015B8001F50212620502222C70E236E790E246E3A
:1015C8002150232622502422F3502326F45024228B
:1015D80023C0F6FF24C0F7FF08000101F5CFCFF1C3
:1015E80001010101D351080D01010101CE511F6E06
:1015F800206A1F1E201E1F4A202A060E1F26000EC4
:101608002022600E216E000E226E1F5021262050CF
:101618002222F3502124D96EF4502220DA6E0101DF
:10162800CFC1DFFF01010101CE51070AD8A41CD0A8
:101638001F6E000E01010101CE6F1F5015D0010170
:101648000101C951310AD8B48BEF01F0030AD8B4AB
:10165800C7EF03F0010AD8B41DEF06F0070AD8B4A3
:1016680026D5010AD8B47ED701010101D32B070E74
:1016780001010101D365E3D76AD01F6E010E010194
:101688000101CA6F1F50000E01010101D16F000E48
:101698000101D06F080E01010101D05D000E0101AA
:1016A800D159D8B067D0CAC18CFF01010101D0510E
:1016B80041EC0CF00101D890CA37100E1F6E940E41
:1016C800E82EFED71F2EFCD700D001010101D04B18
:1016D800D12BE0D71F6E000E01010101C86F1F500A
:1016E80030D01F6E010E01010101CA6F1F50000E9C
:1016F80001010101D16F000E0101D06F080E010137
:101708000101D05D000E0101D159D8B017D0CAC16E
:101718008CFF01010101D05141EC0CF00101D8907E
:10172800CA37100E1F6E940EE82EFED71F2EFCD758
:1017380000D001010101D04BD12BE0D701010101FB
:10174800C82B130E01010101C865CBD713D00101C5
:101758000101C951310AD8B4BDD7030AD8B4BAD7E0
:10176800010AD8B4B7D7070AD8B4B4D7010AD8B48D
:1017780084D7030A01010101CC2B000E176E080E55
:10178800166E0101D2C118F0196AE9EC0BF00101DB
:101798000101CC511F6E206A2050800A216E16501C
:1017A8001F5C1750800A2158D8A07DEF01F0010175
:1017B8000101CE2B01010101CB5101010101CE5DD7
:1017C800D8B0D8EF00F070EF01F01A6E000E1C6E62
:1017D8001A501950800AF36E800EF35C000ED8B4CC
:1017E800185CD8B008D0186C191ED8B0192A1A6E0F
:1017F800010E1C6E1A501750800AF36E800EF35CAF
:10180800000ED8B4165CD8B006D0166C171ED8B027
:10181800172A010E1C1A000E1E6E000E1D6E19509E
:101828001810D8B41ED01A6E010E1B6E1A5004D0B0
:10183800D890183619361B2A19AEFAD7D8901D3603
:101848001E361850165C19501758D8A005D01850D5
:10185800165E1950175A1D80D890193218321B2E4F
:10186800EDD71C50D8B404D01D6C1E1ED8B01E2A4B
:101878001DC016F01EC017F01200E8CF18F0166E43
:10188800000E1C6E16502CD0166E010E1A6E1650D5
:10189800166E000E1B6E16501FD01850080D600EE5
:1018A800166E000E176EF3501626F45017221C50B1
:1018B800010DF3501624D96EF4501720DA6EDF505C
:1018C8001A14196E196602D08B9201D08B828B8004
:1018D8008B90D8901A361B2A070E1B64DED71C2A59
:1018E800060E1C64D1D78B848B94120003EE00F093
:1018F800C80EEE6AE806FDE102EE00F0C80EEE6AD8
:10190800E806FDE10101D66BD56BD46B00EE60F003
:10191800400EEE6AE806FDE1286A276A266A256A0B
:10192800000EF86E0001A8EF00F017C01BF016C0FB
:101938001AF002D01A4A1B2A1AC0D9FF1BC0DAFFB4
:10194800DF50D8A4F7D716C018F017C019F0181E22
:10195800191E184A192A1A501824166E1B501920D5
:10196800176E12000FD017C0F6FF18C0F7FF080057
:10197800F550F8EC0CF01FEC0DF00009D8B4FBD7CB
:10198800174A182A17C0F6FF18C0F7FF0800F550C5
:101998000009D8B41200E7D70FD002C0F6FF03C081
:1019A800F7FF0800F55001EC0DF025EC0DF00009EB
:1019B800D8B4FBD7024A032A02C0F6FF03C0F7FFD8
:1019C8000800F5500009D8B41200E7D7948E949C0B
:1019D800220EAC6E4D0EAF6EB896AC944D0EAF6E37
:1019E800AC8AAB8EAB881200E8CF16F00AEC0DF08B
:1019F8009EA8FED716C0ADFF1200E8CF01F018EC84
:101A08000DF09EA8FED701C0ADFF1200ABB202D008
:101A1800ABA402D0AB98AB881200949094929494A3
:101A28008B908B948B921200ABB202D0ABA402D0F5
:101A3800AB98AB881200ACA202D0010E01D0000E08
:0E1A48001200ACA202D0010E01D0000E12005E
:1079C60000000000000000000000000000000000B1
:1079D6000004000400040004000400040000000485
:1079E600000A000A000A0000000000000000000073
:1079F6000000000A001F000A001F000A001F000AFC
:107A06000007000C0014000C000600050006001C10
:107A16000019001A0002000400040008000B0013FD
:107A26000006000A001200140009001600160009DC
:107A36000004000400040000000000000000000034
:107A46000002000400080008000800080004000204
:107A56000008000400020002000200020004000800
:107A66000015000E001F000E0015000000000000AB
:107A76000000000000040004001F000400040000D1
:107A860000000000000000000000000600040008DE
:107A96000000000000000000000E000000000000D2
:107AA60000000000000000000000000000000004CC
:107AB6000001000200020004000400080008001093
:107AC600000E001100130011001500110019000E20
:107AD6000004000C00140004000400040004001F4D
:107AE600000E001100110002000400080010001F23
:107AF600000E00110001000E000100010011000E31
:107B06000010001000140014001F000400040004FC
:107B1600001F00100010001E000100010001001EE1
:107B2600000700080010001E001100110011000ED1
:107B3600001F0001000100010002000400080010FF
:107B4600000E00110011000E001100110011000EB0
:107B5600000E00110011000F0001000100010001DC
:107B660000000004000400000000000400040000FF
:107B760000000004000400000000000400040008E7
:107B860000010002000400080008000400020001D1
:107B9600000000000000001E0000001E00000000A3
:107BA6000010000800040002000200040008001093
:107BB600000E001100110002000400040000000481
:107BC600000E001100110015001500110011001E15
:107BD600000E001100110011001F0011001100110C
:107BE600001E00110011001E001100110011001EE0
:107BF6000007000800100010001000100008000721
:107C0600001C001200110011001100110012001CCE
:107C1600001F00100010001E001000100010001FB2
:107C2600001F00100010001E0010001000100010B1
:107C3600000E001100100010001700110011000EB8
:107C4600001100110011001F001100110011001198
:107C5600001F000400040004000400040004001FC8
:107C6600001F0004000400040004000400140008BF
:107C76000011001200140018001400120011001167
:107C86000010001000100010001000100010001F5F
:107C96000011001B001F001500110011001100113A
:107CA600001100190019001500150013001300112A
:107CB600000E001100110011001100110011000E3C
:107CC600001E00110011001E001000100010001010
:107CD600000E001100110011001100150013000F15
:107CE600001E00110011001E0014001200110011E8
:107CF600000E001100100008000600010011000E21
:107D0600001F000400040004000400040004000432
:107D16000011001100110011001100110011000ED8
:107D2600001100110011001100110011000A0004D9
:107D36000011001100110011001100150015000AB4
:107D460000110011000A00040004000A00110011CD
:107D560000110011000A00040004000400040004DD
:107D6600001F000100020004000800100010001FA0
:107D7600000E000800080008000800080008000EB1
:107D860000100008000800040004000200020001C0
:107D9600000E000200020002000200020002000EB5
:107DA6000004000A001100000000000000000000AE
:107DB6000000000000000000000000000000001F9E
:107DC60000080004000000000000000000000000A1
:107DD600000000000000000E001200120012000F4A
:107DE6000000001000100010001C00120012001C01
:107DF600000000000000000E001000100010000E31
:107E06000000000100010001000700090009000749
:107E1600000000000000001C0012001E0010000EF2
:107E2600000000030004000400060004000400042F
:107E36000000000E000A000A000E00020002000CFC
:107E46000000001000100010001C001200120012AA
:107E56000000000000040000000400040004000408
:107E66000000000200000002000200020002000CF6
:107E76000000001000100014001800180014001074
:107E86000000001000100010001000100010000C80
:107E9600000000000000000A00150011001100118A
:107EA6000000000000000014001A00120012001268
:107EB600000000000000000C001200120012000C6E
:107EC6000000001C00120012001C00100010001020
:107ED6000000000E00120012000E00020002000157
:107EE600000000000000000A000C0008000800085E
:107EF60000000000000E0010000800040002001E32
:107F0600000000100010001C001000100010000CF3
:107F16000000000000000012001200120012000C07
:107F2600000000000000001100110011000A00040A
:107F36000000000000000011001100110015000AE9
:107F46000000000000000011000A0004000A0011F1
:107F5600000000000011000A0004000800080010DC
:107F6600000000000000001F000200040008001FBF
:107F760000020004000400040008000400040002DB
:107F860000040004000400040004000400040004CB
:107F960000080004000400040002000400040008B5
:107FA600000000000000000A001E0014000000008F
:107FB60000454E54455220544845205041434B45B8
:107FC6005420544F20424520444953504C41594572
:107FD60044204F4E204C4544204D41545249583F71
:107FE6003F0D0A004C4544204D41545249580D0A54
:0A7FF600002A4552524F52240000A9
:020000040030CA
:0E000000240E191EFF8185FF0FC00FE00F4078
:00000001FF
